{
  "_format": "hh-sol-artifact-1",
  "contractName": "CustodyManager",
  "sourceName": "src/CustodyManager.sol",
  "abi": [
    {
      "inputs": [
        {
          "internalType": "address",
          "name": "_petNFT",
          "type": "address"
        }
      ],
      "stateMutability": "nonpayable",
      "type": "constructor"
    },
    {
      "inputs": [
        {
          "internalType": "address",
          "name": "owner",
          "type": "address"
        }
      ],
      "name": "OwnableInvalidOwner",
      "type": "error"
    },
    {
      "inputs": [
        {
          "internalType": "address",
          "name": "account",
          "type": "address"
        }
      ],
      "name": "OwnableUnauthorizedAccount",
      "type": "error"
    },
    {
      "anonymous": false,
      "inputs": [
        {
          "indexed": true,
          "internalType": "address",
          "name": "previousOwner",
          "type": "address"
        },
        {
          "indexed": true,
          "internalType": "address",
          "name": "newOwner",
          "type": "address"
        }
      ],
      "name": "OwnershipTransferred",
      "type": "event"
    },
    {
      "anonymous": false,
      "inputs": [
        {
          "indexed": false,
          "internalType": "uint256",
          "name": "tokenId",
          "type": "uint256"
        },
        {
          "indexed": false,
          "internalType": "address",
          "name": "from",
          "type": "address"
        },
        {
          "indexed": false,
          "internalType": "address",
          "name": "to",
          "type": "address"
        }
      ],
      "name": "OwnershipTransferred",
      "type": "event"
    },
    {
      "inputs": [],
      "name": "owner",
      "outputs": [
        {
          "internalType": "address",
          "name": "",
          "type": "address"
        }
      ],
      "stateMutability": "view",
      "type": "function"
    },
    {
      "inputs": [],
      "name": "petNFT",
      "outputs": [
        {
          "internalType": "contract PetNFT",
          "name": "",
          "type": "address"
        }
      ],
      "stateMutability": "view",
      "type": "function"
    },
    {
      "inputs": [],
      "name": "renounceOwnership",
      "outputs": [],
      "stateMutability": "nonpayable",
      "type": "function"
    },
    {
      "inputs": [
        {
          "internalType": "uint256",
          "name": "tokenId",
          "type": "uint256"
        },
        {
          "internalType": "address",
          "name": "newOwner",
          "type": "address"
        }
      ],
      "name": "transferCustody",
      "outputs": [],
      "stateMutability": "nonpayable",
      "type": "function"
    },
    {
      "inputs": [
        {
          "internalType": "address",
          "name": "newOwner",
          "type": "address"
        }
      ],
      "name": "transferOwnership",
      "outputs": [],
      "stateMutability": "nonpayable",
      "type": "function"
    }
  ],
  "bytecode": "0x608060405234801561001057600080fd5b5060405161058838038061058883398101604081905261002f916100d4565b338061005557604051631e4fbdf760e01b81526000600482015260240160405180910390fd5b61005e81610084565b50600180546001600160a01b0319166001600160a01b0392909216919091179055610104565b600080546001600160a01b038381166001600160a01b0319831681178455604051919092169283917f8be0079c531659141344cd1fd0a4f28419497f9722a3daafe3b4186f6b6457e09190a35050565b6000602082840312156100e657600080fd5b81516001600160a01b03811681146100fd57600080fd5b9392505050565b610475806101136000396000f3fe608060405234801561001057600080fd5b50600436106100575760003560e01c80636dd988671461005c578063715018a61461008b578063815fc9bb146100955780638da5cb5b146100a8578063f2fde38b146100b9575b600080fd5b60015461006f906001600160a01b031681565b6040516001600160a01b03909116815260200160405180910390f35b6100936100cc565b005b6100936100a33660046103ac565b6100e0565b6000546001600160a01b031661006f565b6100936100c73660046103dc565b6102dc565b6100d461031a565b6100de6000610347565b565b6001546040516331a9108f60e11b8152600481018490526000916001600160a01b031690636352211e90602401602060405180830381865afa15801561012a573d6000803e3d6000fd5b505050506040513d601f19601f8201168201806040525081019061014e9190610400565b9050336001600160a01b03821614806101ce57506001546040516347f94e7f60e11b81523360048201526001600160a01b0390911690638ff29cfe90602401602060405180830381865afa1580156101aa573d6000803e3d6000fd5b505050506040513d601f19601f820116820180604052508101906101ce919061041d565b61021f5760405162461bcd60e51b815260206004820152601d60248201527f556e617574686f72697a656420637573746f6479207472616e7366657200000060448201526064015b60405180910390fd5b600154604051631b4e583d60e31b81526001600160a01b0383811660048301528481166024830152604482018690529091169063da72c1e890606401600060405180830381600087803b15801561027557600080fd5b505af1158015610289573d6000803e3d6000fd5b5050604080518681526001600160a01b03858116602083015286168183015290517f16b85f49bf01212961345d3016c9a531894accf62eb7680f2045d79185cc0ec09350908190036060019150a1505050565b6102e461031a565b6001600160a01b03811661030e57604051631e4fbdf760e01b815260006004820152602401610216565b61031781610347565b50565b6000546001600160a01b031633146100de5760405163118cdaa760e01b8152336004820152602401610216565b600080546001600160a01b038381166001600160a01b0319831681178455604051919092169283917f8be0079c531659141344cd1fd0a4f28419497f9722a3daafe3b4186f6b6457e09190a35050565b6001600160a01b038116811461031757600080fd5b600080604083850312156103bf57600080fd5b8235915060208301356103d181610397565b809150509250929050565b6000602082840312156103ee57600080fd5b81356103f981610397565b9392505050565b60006020828403121561041257600080fd5b81516103f981610397565b60006020828403121561042f57600080fd5b815180151581146103f957600080fdfea26469706673582212205fa3e84af45cbe1eb8c644126500db785bd68eb74c5f71a01ceba314a5b134a764736f6c63430008140033",
  "linkReferences": {},
  "deployedLinkReferences": {}
}