{
  "_format": "hh-sol-artifact-1",
  "contractName": "HealthRegistry",
  "sourceName": "src/HealthRegistry.sol",
  "abi": [
    {
      "inputs": [],
      "stateMutability": "nonpayable",
      "type": "constructor"
    },
    {
      "inputs": [
        {
          "internalType": "address",
          "name": "owner",
          "type": "address"
        }
      ],
      "name": "OwnableInvalidOwner",
      "type": "error"
    },
    {
      "inputs": [
        {
          "internalType": "address",
          "name": "account",
          "type": "address"
        }
      ],
      "name": "OwnableUnauthorizedAccount",
      "type": "error"
    },
    {
      "anonymous": false,
      "inputs": [
        {
          "indexed": false,
          "internalType": "uint256",
          "name": "tokenId",
          "type": "uint256"
        },
        {
          "indexed": false,
          "internalType": "address",
          "name": "vet",
          "type": "address"
        },
        {
          "indexed": false,
          "internalType": "string",
          "name": "details",
          "type": "string"
        }
      ],
      "name": "HealthRecordAdded",
      "type": "event"
    },
    {
      "anonymous": false,
      "inputs": [
        {
          "indexed": true,
          "internalType": "address",
          "name": "previousOwner",
          "type": "address"
        },
        {
          "indexed": true,
          "internalType": "address",
          "name": "newOwner",
          "type": "address"
        }
      ],
      "name": "OwnershipTransferred",
      "type": "event"
    },
    {
      "inputs": [
        {
          "internalType": "uint256",
          "name": "tokenId",
          "type": "uint256"
        },
        {
          "internalType": "string",
          "name": "details",
          "type": "string"
        }
      ],
      "name": "addHealthRecord",
      "outputs": [],
      "stateMutability": "nonpayable",
      "type": "function"
    },
    {
      "inputs": [
        {
          "internalType": "address",
          "name": "vet",
          "type": "address"
        },
        {
          "internalType": "bool",
          "name": "status",
          "type": "bool"
        }
      ],
      "name": "authorizeVet",
      "outputs": [],
      "stateMutability": "nonpayable",
      "type": "function"
    },
    {
      "inputs": [
        {
          "internalType": "address",
          "name": "",
          "type": "address"
        }
      ],
      "name": "authorizedVets",
      "outputs": [
        {
          "internalType": "bool",
          "name": "",
          "type": "bool"
        }
      ],
      "stateMutability": "view",
      "type": "function"
    },
    {
      "inputs": [
        {
          "internalType": "uint256",
          "name": "tokenId",
          "type": "uint256"
        }
      ],
      "name": "getHealthRecords",
      "outputs": [
        {
          "components": [
            {
              "internalType": "uint256",
              "name": "timestamp",
              "type": "uint256"
            },
            {
              "internalType": "string",
              "name": "details",
              "type": "string"
            },
            {
              "internalType": "address",
              "name": "vet",
              "type": "address"
            }
          ],
          "internalType": "struct HealthRegistry.Record[]",
          "name": "",
          "type": "tuple[]"
        }
      ],
      "stateMutability": "view",
      "type": "function"
    },
    {
      "inputs": [
        {
          "internalType": "uint256",
          "name": "",
          "type": "uint256"
        },
        {
          "internalType": "uint256",
          "name": "",
          "type": "uint256"
        }
      ],
      "name": "healthRecords",
      "outputs": [
        {
          "internalType": "uint256",
          "name": "timestamp",
          "type": "uint256"
        },
        {
          "internalType": "string",
          "name": "details",
          "type": "string"
        },
        {
          "internalType": "address",
          "name": "vet",
          "type": "address"
        }
      ],
      "stateMutability": "view",
      "type": "function"
    },
    {
      "inputs": [],
      "name": "owner",
      "outputs": [
        {
          "internalType": "address",
          "name": "",
          "type": "address"
        }
      ],
      "stateMutability": "view",
      "type": "function"
    },
    {
      "inputs": [],
      "name": "renounceOwnership",
      "outputs": [],
      "stateMutability": "nonpayable",
      "type": "function"
    },
    {
      "inputs": [
        {
          "internalType": "address",
          "name": "newOwner",
          "type": "address"
        }
      ],
      "name": "transferOwnership",
      "outputs": [],
      "stateMutability": "nonpayable",
      "type": "function"
    }
  ],
  "bytecode": "0x608060405234801561001057600080fd5b50338061003757604051631e4fbdf760e01b81526000600482015260240160405180910390fd5b61004081610046565b50610096565b600080546001600160a01b038381166001600160a01b0319831681178455604051919092169283917f8be0079c531659141344cd1fd0a4f28419497f9722a3daafe3b4186f6b6457e09190a35050565b6109cd806100a56000396000f3fe608060405234801561001057600080fd5b50600436106100885760003560e01c80638da5cb5b1161005b5780638da5cb5b14610108578063a98cd9e714610123578063d95a19a514610136578063f2fde38b1461015657600080fd5b806324eee43d1461008d5780632a22c175146100b8578063715018a6146100cd5780638315a278146100d5575b600080fd5b6100a061009b3660046105bf565b610169565b6040516100af93929190610627565b60405180910390f35b6100cb6100c6366004610674565b610241565b005b6100cb610274565b6100f86100e33660046106b0565b60026020526000908152604090205460ff1681565b60405190151581526020016100af565b6000546040516001600160a01b0390911681526020016100af565b6100cb6101313660046106d2565b610288565b61014961014436600461074e565b6103e0565b6040516100af9190610767565b6100cb6101643660046106b0565b610504565b6001602052816000526040600020818154811061018557600080fd5b9060005260206000209060030201600091509150508060000154908060010180546101af906107f1565b80601f01602080910402602001604051908101604052809291908181526020018280546101db906107f1565b80156102285780601f106101fd57610100808354040283529160200191610228565b820191906000526020600020905b81548152906001019060200180831161020b57829003601f168201915b505050600290930154919250506001600160a01b031683565b610249610542565b6001600160a01b03919091166000908152600260205260409020805460ff1916911515919091179055565b61027c610542565b610286600061056f565b565b3360009081526002602052604090205460ff166102e15760405162461bcd60e51b8152602060048201526012602482015271139bdd08185d5d1a1bdc9a5e9959081d995d60721b60448201526064015b60405180910390fd5b60016000848152602001908152602001600020604051806060016040528042815260200184848080601f0160208091040260200160405190810160405280939291908181526020018383808284376000920182905250938552505033602093840152508354600181810186559482529082902083516003909202019081559082015191929091908201906103759082610890565b5060409182015160029190910180546001600160a01b0319166001600160a01b03909216919091179055517febe2314b4340b92f69bd0553d79e51434bd6670cbfe82fa44733e3ca36e6a8d6906103d3908590339086908690610950565b60405180910390a1505050565b606060016000838152602001908152602001600020805480602002602001604051908101604052809291908181526020016000905b828210156104f9578382906000526020600020906003020160405180606001604052908160008201548152602001600182018054610452906107f1565b80601f016020809104026020016040519081016040528092919081815260200182805461047e906107f1565b80156104cb5780601f106104a0576101008083540402835291602001916104cb565b820191906000526020600020905b8154815290600101906020018083116104ae57829003601f168201915b5050509183525050600291909101546001600160a01b03166020918201529082526001929092019101610415565b505050509050919050565b61050c610542565b6001600160a01b03811661053657604051631e4fbdf760e01b8152600060048201526024016102d8565b61053f8161056f565b50565b6000546001600160a01b031633146102865760405163118cdaa760e01b81523360048201526024016102d8565b600080546001600160a01b038381166001600160a01b0319831681178455604051919092169283917f8be0079c531659141344cd1fd0a4f28419497f9722a3daafe3b4186f6b6457e09190a35050565b600080604083850312156105d257600080fd5b50508035926020909101359150565b6000815180845260005b81811015610607576020818501810151868301820152016105eb565b506000602082860101526020601f19601f83011685010191505092915050565b83815260606020820152600061064060608301856105e1565b905060018060a01b0383166040830152949350505050565b80356001600160a01b038116811461066f57600080fd5b919050565b6000806040838503121561068757600080fd5b61069083610658565b9150602083013580151581146106a557600080fd5b809150509250929050565b6000602082840312156106c257600080fd5b6106cb82610658565b9392505050565b6000806000604084860312156106e757600080fd5b83359250602084013567ffffffffffffffff8082111561070657600080fd5b818601915086601f83011261071a57600080fd5b81358181111561072957600080fd5b87602082850101111561073b57600080fd5b6020830194508093505050509250925092565b60006020828403121561076057600080fd5b5035919050565b60006020808301818452808551808352604092508286019150828160051b87010184880160005b838110156107e357603f19898403018552815160608151855288820151818a8701526107bc828701826105e1565b928901516001600160a01b031695890195909552509487019492509086019060010161078e565b509098975050505050505050565b600181811c9082168061080557607f821691505b60208210810361082557634e487b7160e01b600052602260045260246000fd5b50919050565b634e487b7160e01b600052604160045260246000fd5b601f82111561088b57600081815260208120601f850160051c810160208610156108685750805b601f850160051c820191505b8181101561088757828155600101610874565b5050505b505050565b815167ffffffffffffffff8111156108aa576108aa61082b565b6108be816108b884546107f1565b84610841565b602080601f8311600181146108f357600084156108db5750858301515b600019600386901b1c1916600185901b178555610887565b600085815260208120601f198616915b8281101561092257888601518255948401946001909101908401610903565b50858210156109405787850151600019600388901b60f8161c191681555b5050505050600190811b01905550565b8481526001600160a01b03841660208201526060604082018190528101829052818360808301376000818301608090810191909152601f909201601f19160101939250505056fea2646970667358221220595cb3c185d362a63a7f11d6ea3bb4839ea3305f96f57101fdf427cf36e85f0864736f6c63430008140033",
  "linkReferences": {},
  "deployedLinkReferences": {}
}