{
  "_format": "hh-sol-artifact-1",
  "contractName": "PetNFT",
  "sourceName": "src/PetNFT.sol",
  "abi": [
    {
      "inputs": [],
      "stateMutability": "nonpayable",
      "type": "constructor"
    },
    {
      "inputs": [
        {
          "internalType": "address",
          "name": "sender",
          "type": "address"
        },
        {
          "internalType": "uint256",
          "name": "tokenId",
          "type": "uint256"
        },
        {
          "internalType": "address",
          "name": "owner",
          "type": "address"
        }
      ],
      "name": "ERC721IncorrectOwner",
      "type": "error"
    },
    {
      "inputs": [
        {
          "internalType": "address",
          "name": "operator",
          "type": "address"
        },
        {
          "internalType": "uint256",
          "name": "tokenId",
          "type": "uint256"
        }
      ],
      "name": "ERC721InsufficientApproval",
      "type": "error"
    },
    {
      "inputs": [
        {
          "internalType": "address",
          "name": "approver",
          "type": "address"
        }
      ],
      "name": "ERC721InvalidApprover",
      "type": "error"
    },
    {
      "inputs": [
        {
          "internalType": "address",
          "name": "operator",
          "type": "address"
        }
      ],
      "name": "ERC721InvalidOperator",
      "type": "error"
    },
    {
      "inputs": [
        {
          "internalType": "address",
          "name": "owner",
          "type": "address"
        }
      ],
      "name": "ERC721InvalidOwner",
      "type": "error"
    },
    {
      "inputs": [
        {
          "internalType": "address",
          "name": "receiver",
          "type": "address"
        }
      ],
      "name": "ERC721InvalidReceiver",
      "type": "error"
    },
    {
      "inputs": [
        {
          "internalType": "address",
          "name": "sender",
          "type": "address"
        }
      ],
      "name": "ERC721InvalidSender",
      "type": "error"
    },
    {
      "inputs": [
        {
          "internalType": "uint256",
          "name": "tokenId",
          "type": "uint256"
        }
      ],
      "name": "ERC721NonexistentToken",
      "type": "error"
    },
    {
      "inputs": [
        {
          "internalType": "address",
          "name": "owner",
          "type": "address"
        }
      ],
      "name": "OwnableInvalidOwner",
      "type": "error"
    },
    {
      "inputs": [
        {
          "internalType": "address",
          "name": "account",
          "type": "address"
        }
      ],
      "name": "OwnableUnauthorizedAccount",
      "type": "error"
    },
    {
      "anonymous": false,
      "inputs": [
        {
          "indexed": true,
          "internalType": "address",
          "name": "owner",
          "type": "address"
        },
        {
          "indexed": true,
          "internalType": "address",
          "name": "approved",
          "type": "address"
        },
        {
          "indexed": true,
          "internalType": "uint256",
          "name": "tokenId",
          "type": "uint256"
        }
      ],
      "name": "Approval",
      "type": "event"
    },
    {
      "anonymous": false,
      "inputs": [
        {
          "indexed": true,
          "internalType": "address",
          "name": "owner",
          "type": "address"
        },
        {
          "indexed": true,
          "internalType": "address",
          "name": "operator",
          "type": "address"
        },
        {
          "indexed": false,
          "internalType": "bool",
          "name": "approved",
          "type": "bool"
        }
      ],
      "name": "ApprovalForAll",
      "type": "event"
    },
    {
      "anonymous": false,
      "inputs": [
        {
          "indexed": false,
          "internalType": "uint256",
          "name": "_fromTokenId",
          "type": "uint256"
        },
        {
          "indexed": false,
          "internalType": "uint256",
          "name": "_toTokenId",
          "type": "uint256"
        }
      ],
      "name": "BatchMetadataUpdate",
      "type": "event"
    },
    {
      "anonymous": false,
      "inputs": [
        {
          "indexed": false,
          "internalType": "address",
          "name": "manager",
          "type": "address"
        },
        {
          "indexed": false,
          "internalType": "bool",
          "name": "status",
          "type": "bool"
        }
      ],
      "name": "CustodyManagerAuthorized",
      "type": "event"
    },
    {
      "anonymous": false,
      "inputs": [
        {
          "indexed": false,
          "internalType": "uint256",
          "name": "tokenId",
          "type": "uint256"
        },
        {
          "indexed": false,
          "internalType": "string",
          "name": "details",
          "type": "string"
        }
      ],
      "name": "HealthUpdated",
      "type": "event"
    },
    {
      "anonymous": false,
      "inputs": [
        {
          "indexed": false,
          "internalType": "uint256",
          "name": "tokenId",
          "type": "uint256"
        },
        {
          "indexed": false,
          "internalType": "bool",
          "name": "isLost",
          "type": "bool"
        }
      ],
      "name": "LostStatusUpdated",
      "type": "event"
    },
    {
      "anonymous": false,
      "inputs": [
        {
          "indexed": false,
          "internalType": "uint256",
          "name": "_tokenId",
          "type": "uint256"
        }
      ],
      "name": "MetadataUpdate",
      "type": "event"
    },
    {
      "anonymous": false,
      "inputs": [
        {
          "indexed": true,
          "internalType": "address",
          "name": "previousOwner",
          "type": "address"
        },
        {
          "indexed": true,
          "internalType": "address",
          "name": "newOwner",
          "type": "address"
        }
      ],
      "name": "OwnershipTransferred",
      "type": "event"
    },
    {
      "anonymous": false,
      "inputs": [
        {
          "indexed": false,
          "internalType": "uint256",
          "name": "tokenId",
          "type": "uint256"
        },
        {
          "indexed": false,
          "internalType": "address",
          "name": "owner",
          "type": "address"
        }
      ],
      "name": "PetRegistered",
      "type": "event"
    },
    {
      "anonymous": false,
      "inputs": [
        {
          "indexed": true,
          "internalType": "address",
          "name": "from",
          "type": "address"
        },
        {
          "indexed": true,
          "internalType": "address",
          "name": "to",
          "type": "address"
        },
        {
          "indexed": true,
          "internalType": "uint256",
          "name": "tokenId",
          "type": "uint256"
        }
      ],
      "name": "Transfer",
      "type": "event"
    },
    {
      "inputs": [
        {
          "internalType": "address",
          "name": "from",
          "type": "address"
        },
        {
          "internalType": "address",
          "name": "to",
          "type": "address"
        },
        {
          "internalType": "uint256",
          "name": "tokenId",
          "type": "uint256"
        }
      ],
      "name": "adminTransfer",
      "outputs": [],
      "stateMutability": "nonpayable",
      "type": "function"
    },
    {
      "inputs": [
        {
          "internalType": "address",
          "name": "to",
          "type": "address"
        },
        {
          "internalType": "uint256",
          "name": "tokenId",
          "type": "uint256"
        }
      ],
      "name": "approve",
      "outputs": [],
      "stateMutability": "nonpayable",
      "type": "function"
    },
    {
      "inputs": [
        {
          "internalType": "address",
          "name": "manager",
          "type": "address"
        },
        {
          "internalType": "bool",
          "name": "status",
          "type": "bool"
        }
      ],
      "name": "authorizeCustodyManager",
      "outputs": [],
      "stateMutability": "nonpayable",
      "type": "function"
    },
    {
      "inputs": [
        {
          "internalType": "address",
          "name": "updater",
          "type": "address"
        },
        {
          "internalType": "bool",
          "name": "status",
          "type": "bool"
        }
      ],
      "name": "authorizeUpdater",
      "outputs": [],
      "stateMutability": "nonpayable",
      "type": "function"
    },
    {
      "inputs": [
        {
          "internalType": "address",
          "name": "",
          "type": "address"
        }
      ],
      "name": "authorizedUpdaters",
      "outputs": [
        {
          "internalType": "bool",
          "name": "",
          "type": "bool"
        }
      ],
      "stateMutability": "view",
      "type": "function"
    },
    {
      "inputs": [
        {
          "internalType": "address",
          "name": "owner",
          "type": "address"
        }
      ],
      "name": "balanceOf",
      "outputs": [
        {
          "internalType": "uint256",
          "name": "",
          "type": "uint256"
        }
      ],
      "stateMutability": "view",
      "type": "function"
    },
    {
      "inputs": [
        {
          "internalType": "address",
          "name": "",
          "type": "address"
        }
      ],
      "name": "custodyManagers",
      "outputs": [
        {
          "internalType": "bool",
          "name": "",
          "type": "bool"
        }
      ],
      "stateMutability": "view",
      "type": "function"
    },
    {
      "inputs": [
        {
          "internalType": "uint256",
          "name": "tokenId",
          "type": "uint256"
        }
      ],
      "name": "getApproved",
      "outputs": [
        {
          "internalType": "address",
          "name": "",
          "type": "address"
        }
      ],
      "stateMutability": "view",
      "type": "function"
    },
    {
      "inputs": [
        {
          "internalType": "uint256",
          "name": "tokenId",
          "type": "uint256"
        }
      ],
      "name": "getPetById",
      "outputs": [
        {
          "internalType": "string",
          "name": "name",
          "type": "string"
        },
        {
          "internalType": "string",
          "name": "breed",
          "type": "string"
        },
        {
          "internalType": "uint256",
          "name": "birthDate",
          "type": "uint256"
        },
        {
          "internalType": "bool",
          "name": "isLost",
          "type": "bool"
        }
      ],
      "stateMutability": "view",
      "type": "function"
    },
    {
      "inputs": [
        {
          "internalType": "address",
          "name": "owner",
          "type": "address"
        },
        {
          "internalType": "address",
          "name": "operator",
          "type": "address"
        }
      ],
      "name": "isApprovedForAll",
      "outputs": [
        {
          "internalType": "bool",
          "name": "",
          "type": "bool"
        }
      ],
      "stateMutability": "view",
      "type": "function"
    },
    {
      "inputs": [
        {
          "internalType": "uint256",
          "name": "tokenId",
          "type": "uint256"
        },
        {
          "internalType": "bool",
          "name": "lost",
          "type": "bool"
        }
      ],
      "name": "markLost",
      "outputs": [],
      "stateMutability": "nonpayable",
      "type": "function"
    },
    {
      "inputs": [],
      "name": "name",
      "outputs": [
        {
          "internalType": "string",
          "name": "",
          "type": "string"
        }
      ],
      "stateMutability": "view",
      "type": "function"
    },
    {
      "inputs": [],
      "name": "owner",
      "outputs": [
        {
          "internalType": "address",
          "name": "",
          "type": "address"
        }
      ],
      "stateMutability": "view",
      "type": "function"
    },
    {
      "inputs": [
        {
          "internalType": "uint256",
          "name": "tokenId",
          "type": "uint256"
        }
      ],
      "name": "ownerOf",
      "outputs": [
        {
          "internalType": "address",
          "name": "",
          "type": "address"
        }
      ],
      "stateMutability": "view",
      "type": "function"
    },
    {
      "inputs": [
        {
          "internalType": "uint256",
          "name": "",
          "type": "uint256"
        }
      ],
      "name": "pets",
      "outputs": [
        {
          "internalType": "string",
          "name": "name",
          "type": "string"
        },
        {
          "internalType": "string",
          "name": "breed",
          "type": "string"
        },
        {
          "internalType": "uint256",
          "name": "birthDate",
          "type": "uint256"
        },
        {
          "internalType": "bool",
          "name": "isLost",
          "type": "bool"
        }
      ],
      "stateMutability": "view",
      "type": "function"
    },
    {
      "inputs": [
        {
          "internalType": "address",
          "name": "to",
          "type": "address"
        },
        {
          "internalType": "string",
          "name": "name",
          "type": "string"
        },
        {
          "internalType": "string",
          "name": "breed",
          "type": "string"
        },
        {
          "internalType": "uint256",
          "name": "birthDate",
          "type": "uint256"
        },
        {
          "internalType": "string",
          "name": "tokenURI",
          "type": "string"
        }
      ],
      "name": "registerPet",
      "outputs": [
        {
          "internalType": "uint256",
          "name": "",
          "type": "uint256"
        }
      ],
      "stateMutability": "nonpayable",
      "type": "function"
    },
    {
      "inputs": [],
      "name": "renounceOwnership",
      "outputs": [],
      "stateMutability": "nonpayable",
      "type": "function"
    },
    {
      "inputs": [
        {
          "internalType": "address",
          "name": "from",
          "type": "address"
        },
        {
          "internalType": "address",
          "name": "to",
          "type": "address"
        },
        {
          "internalType": "uint256",
          "name": "tokenId",
          "type": "uint256"
        }
      ],
      "name": "safeTransferFrom",
      "outputs": [],
      "stateMutability": "nonpayable",
      "type": "function"
    },
    {
      "inputs": [
        {
          "internalType": "address",
          "name": "from",
          "type": "address"
        },
        {
          "internalType": "address",
          "name": "to",
          "type": "address"
        },
        {
          "internalType": "uint256",
          "name": "tokenId",
          "type": "uint256"
        },
        {
          "internalType": "bytes",
          "name": "data",
          "type": "bytes"
        }
      ],
      "name": "safeTransferFrom",
      "outputs": [],
      "stateMutability": "nonpayable",
      "type": "function"
    },
    {
      "inputs": [
        {
          "internalType": "address",
          "name": "operator",
          "type": "address"
        },
        {
          "internalType": "bool",
          "name": "approved",
          "type": "bool"
        }
      ],
      "name": "setApprovalForAll",
      "outputs": [],
      "stateMutability": "nonpayable",
      "type": "function"
    },
    {
      "inputs": [
        {
          "internalType": "bytes4",
          "name": "interfaceId",
          "type": "bytes4"
        }
      ],
      "name": "supportsInterface",
      "outputs": [
        {
          "internalType": "bool",
          "name": "",
          "type": "bool"
        }
      ],
      "stateMutability": "view",
      "type": "function"
    },
    {
      "inputs": [],
      "name": "symbol",
      "outputs": [
        {
          "internalType": "string",
          "name": "",
          "type": "string"
        }
      ],
      "stateMutability": "view",
      "type": "function"
    },
    {
      "inputs": [
        {
          "internalType": "uint256",
          "name": "tokenId",
          "type": "uint256"
        }
      ],
      "name": "tokenURI",
      "outputs": [
        {
          "internalType": "string",
          "name": "",
          "type": "string"
        }
      ],
      "stateMutability": "view",
      "type": "function"
    },
    {
      "inputs": [
        {
          "internalType": "address",
          "name": "from",
          "type": "address"
        },
        {
          "internalType": "address",
          "name": "to",
          "type": "address"
        },
        {
          "internalType": "uint256",
          "name": "tokenId",
          "type": "uint256"
        }
      ],
      "name": "transferFrom",
      "outputs": [],
      "stateMutability": "nonpayable",
      "type": "function"
    },
    {
      "inputs": [
        {
          "internalType": "address",
          "name": "newOwner",
          "type": "address"
        }
      ],
      "name": "transferOwnership",
      "outputs": [],
      "stateMutability": "nonpayable",
      "type": "function"
    }
  ],
  "bytecode": "0x60806040523480156200001157600080fd5b50336040518060400160405280600c81526020016b14185dd0da185a5b8814195d60a21b8152506040518060400160405280600381526020016250415760e81b8152508160009081620000659190620001af565b506001620000748282620001af565b5050506001600160a01b038116620000a657604051631e4fbdf760e01b81526000600482015260240160405180910390fd5b620000b181620000b8565b506200027b565b600780546001600160a01b038381166001600160a01b0319831681179093556040519116919082907f8be0079c531659141344cd1fd0a4f28419497f9722a3daafe3b4186f6b6457e090600090a35050565b634e487b7160e01b600052604160045260246000fd5b600181811c908216806200013557607f821691505b6020821081036200015657634e487b7160e01b600052602260045260246000fd5b50919050565b601f821115620001aa57600081815260208120601f850160051c81016020861015620001855750805b601f850160051c820191505b81811015620001a65782815560010162000191565b5050505b505050565b81516001600160401b03811115620001cb57620001cb6200010a565b620001e381620001dc845462000120565b846200015c565b602080601f8311600181146200021b5760008415620002025750858301515b600019600386901b1c1916600185901b178555620001a6565b600085815260208120601f198616915b828110156200024c578886015182559484019460019091019084016200022b565b50858210156200026b5787850151600019600388901b60f8161c191681555b5050505050600190811b01905550565b611bea806200028b6000396000f3fe608060405234801561001057600080fd5b50600436106101735760003560e01c806371cdbbc6116100de578063c87b56dd11610097578063d1e8e59411610071578063d1e8e5941461035e578063da72c1e814610371578063e985e9c514610384578063f2fde38b1461039757600080fd5b8063c87b56dd14610315578063cb92050914610328578063cfb869bf1461034b57600080fd5b806371cdbbc6146102a05780638da5cb5b146102b35780638ff29cfe146102c457806395d89b41146102e7578063a22cb465146102ef578063b88d4fde1461030257600080fd5b80632fd8661f116101305780632fd8661f1461022957806338f6d9e01461023c57806342842e0e1461025f5780636352211e1461027257806370a0823114610285578063715018a61461029857600080fd5b806301ffc9a71461017857806306fdde03146101a0578063081812fc146101b5578063095ea7b3146101e057806323b872dd146101f55780632a7d9deb14610208575b600080fd5b61018b61018636600461161c565b6103aa565b60405190151581526020015b60405180910390f35b6101a86103d5565b6040516101979190611689565b6101c86101c336600461169c565b610467565b6040516001600160a01b039091168152602001610197565b6101f36101ee3660046116d1565b610490565b005b6101f36102033660046116fb565b61049f565b61021b6102163660046117e3565b61052f565b604051908152602001610197565b6101f3610237366004611896565b610670565b61018b61024a3660046118c9565b600c6020526000908152604090205460ff1681565b6101f361026d3660046116fb565b6106a3565b6101c861028036600461169c565b6106c3565b61021b6102933660046118c9565b6106ce565b6101f3610716565b6101f36102ae3660046118e4565b61072a565b6007546001600160a01b03166101c8565b61018b6102d23660046118c9565b600b6020526000908152604090205460ff1681565b6101a86107e2565b6101f36102fd366004611896565b6107f1565b6101f3610310366004611907565b6107fc565b6101a861032336600461169c565b610814565b61033b61033636600461169c565b610925565b6040516101979493929190611983565b61033b61035936600461169c565b610aad565b6101f361036c366004611896565b610be9565b6101f361037f3660046116fb565b610c4d565b61018b6103923660046119c1565b610cb7565b6101f36103a53660046118c9565b610ce5565b60006001600160e01b03198216632483248360e11b14806103cf57506103cf82610d23565b92915050565b6060600080546103e4906119eb565b80601f0160208091040260200160405190810160405280929190818152602001828054610410906119eb565b801561045d5780601f106104325761010080835404028352916020019161045d565b820191906000526020600020905b81548152906001019060200180831161044057829003601f168201915b5050505050905090565b600061047282610d73565b506000828152600460205260409020546001600160a01b03166103cf565b61049b828233610dac565b5050565b6001600160a01b0382166104ce57604051633250574960e11b8152600060048201526024015b60405180910390fd5b60006104db838333610db9565b9050836001600160a01b0316816001600160a01b031614610529576040516364283d7b60e01b81526001600160a01b03808616600483015260248201849052821660448201526064016104c5565b50505050565b336000908152600b602052604081205460ff1661057f5760405162461bcd60e51b815260206004820152600e60248201526d139bdd08185d5d1a1bdc9a5e995960921b60448201526064016104c5565b61058d600880546001019055565b600061059860085490565b90506105a48782610eb2565b6105ae8184610f17565b604080516080810182528781526020808201889052818301879052600060608301819052848152600a90915291909120815181906105ec9082611a6b565b50602082015160018201906106019082611a6b565b5060408281015160028301556060909201516003909101805460ff191691151591909117905580518281526001600160a01b03891660208201527f7a92415b8c58de5d1252866093d59e3297daf4846e2c15c090d8141844397166910160405180910390a19695505050505050565b610678610f60565b6001600160a01b03919091166000908152600b60205260409020805460ff1916911515919091179055565b6106be838383604051806020016040528060008152506107fc565b505050565b60006103cf82610d73565b60006001600160a01b0382166106fa576040516322718ad960e21b8152600060048201526024016104c5565b506001600160a01b031660009081526003602052604090205490565b61071e610f60565b6107286000610f8d565b565b600954610741906001600160a01b03163384610fdf565b6107855760405162461bcd60e51b8152602060048201526015602482015274139bdd081bdddb995c881bdc88185c1c1c9bdd9959605a1b60448201526064016104c5565b6000828152600a6020908152604091829020600301805460ff19168415159081179091558251858152918201527f76edf35b427fbab449a3bf14f968339308869a100489c3b98d63a46f8d2f06de91015b60405180910390a15050565b6060600180546103e4906119eb565b61049b338383611042565b61080784848461049f565b61052933858585856110e1565b606061081f82610d73565b5060008281526006602052604081208054610839906119eb565b80601f0160208091040260200160405190810160405280929190818152602001828054610865906119eb565b80156108b25780601f10610887576101008083540402835291602001916108b2565b820191906000526020600020905b81548152906001019060200180831161089557829003601f168201915b5050505050905060006108d060408051602081019091526000815290565b905080516000036108e2575092915050565b8151156109145780826040516020016108fc929190611b2b565b60405160208183030381529060405292505050919050565b61091d8461120c565b949350505050565b6060806000806000600a600087815260200190815260200160002060405180608001604052908160008201805461095b906119eb565b80601f0160208091040260200160405190810160405280929190818152602001828054610987906119eb565b80156109d45780601f106109a9576101008083540402835291602001916109d4565b820191906000526020600020905b8154815290600101906020018083116109b757829003601f168201915b505050505081526020016001820180546109ed906119eb565b80601f0160208091040260200160405190810160405280929190818152602001828054610a19906119eb565b8015610a665780601f10610a3b57610100808354040283529160200191610a66565b820191906000526020600020905b815481529060010190602001808311610a4957829003601f168201915b5050509183525050600282015460208083019190915260039092015460ff161515604091820152825191830151908301516060909301519199909850919650945092505050565b600a60205260009081526040902080548190610ac8906119eb565b80601f0160208091040260200160405190810160405280929190818152602001828054610af4906119eb565b8015610b415780601f10610b1657610100808354040283529160200191610b41565b820191906000526020600020905b815481529060010190602001808311610b2457829003601f168201915b505050505090806001018054610b56906119eb565b80601f0160208091040260200160405190810160405280929190818152602001828054610b82906119eb565b8015610bcf5780601f10610ba457610100808354040283529160200191610bcf565b820191906000526020600020905b815481529060010190602001808311610bb257829003601f168201915b50505050600283015460039093015491929160ff16905084565b610bf1610f60565b6001600160a01b0382166000818152600c6020908152604091829020805460ff19168515159081179091558251938452908301527f804b2b59674ca0bf0c884a10ca68724e1d40de80962b38497c5b2ebe6ab5cf4491016107d6565b336000908152600c602052604090205460ff16610cac5760405162461bcd60e51b815260206004820152601a60248201527f4e6f7420617574686f72697a656420746f207472616e7366657200000000000060448201526064016104c5565b6106be838383611281565b6001600160a01b03918216600090815260056020908152604080832093909416825291909152205460ff1690565b610ced610f60565b6001600160a01b038116610d1757604051631e4fbdf760e01b8152600060048201526024016104c5565b610d2081610f8d565b50565b60006001600160e01b031982166380ac58cd60e01b1480610d5457506001600160e01b03198216635b5e139f60e01b145b806103cf57506301ffc9a760e01b6001600160e01b03198316146103cf565b6000818152600260205260408120546001600160a01b0316806103cf57604051637e27328960e01b8152600481018490526024016104c5565b6106be8383836001611331565b6000828152600260205260408120546001600160a01b0390811690831615610de657610de6818486611437565b6001600160a01b03811615610e2457610e03600085600080611331565b6001600160a01b038116600090815260036020526040902080546000190190555b6001600160a01b03851615610e53576001600160a01b0385166000908152600360205260409020805460010190555b60008481526002602052604080822080546001600160a01b0319166001600160a01b0389811691821790925591518793918516917fddf252ad1be2c89b69c2b068fc378daa952ba7f163c4a11628f55a4df523b3ef91a4949350505050565b6001600160a01b038216610edc57604051633250574960e11b8152600060048201526024016104c5565b6000610eea83836000610db9565b90506001600160a01b038116156106be576040516339e3563760e11b8152600060048201526024016104c5565b6000828152600660205260409020610f2f8282611a6b565b506040518281527ff8e1a15aba9398e019f0b49df1a4fde98ee17ae345cb5f6b5e2c27f5033e8ce7906020016107d6565b6007546001600160a01b031633146107285760405163118cdaa760e01b81523360048201526024016104c5565b600780546001600160a01b038381166001600160a01b0319831681179093556040519116919082907f8be0079c531659141344cd1fd0a4f28419497f9722a3daafe3b4186f6b6457e090600090a35050565b60006001600160a01b0383161580159061091d5750826001600160a01b0316846001600160a01b0316148061101957506110198484610cb7565b8061091d5750506000908152600460205260409020546001600160a01b03908116911614919050565b6001600160a01b03821661107457604051630b61174360e31b81526001600160a01b03831660048201526024016104c5565b6001600160a01b03838116600081815260056020908152604080832094871680845294825291829020805460ff191686151590811790915591519182527f17307eab39ab6107e8899845ad3d59bd9653f200f220920489ca2b5937696c31910160405180910390a3505050565b6001600160a01b0383163b1561120557604051630a85bd0160e11b81526001600160a01b0384169063150b7a0290611123908890889087908790600401611b5a565b6020604051808303816000875af192505050801561115e575060408051601f3d908101601f1916820190925261115b91810190611b97565b60015b6111c7573d80801561118c576040519150601f19603f3d011682016040523d82523d6000602084013e611191565b606091505b5080516000036111bf57604051633250574960e11b81526001600160a01b03851660048201526024016104c5565b805181602001fd5b6001600160e01b03198116630a85bd0160e11b1461120357604051633250574960e11b81526001600160a01b03851660048201526024016104c5565b505b5050505050565b606061121782610d73565b50600061122f60408051602081019091526000815290565b9050600081511161124f576040518060200160405280600081525061127a565b806112598461149b565b60405160200161126a929190611b2b565b6040516020818303038152906040525b9392505050565b6001600160a01b0382166112ab57604051633250574960e11b8152600060048201526024016104c5565b60006112b983836000610db9565b90506001600160a01b0381166112e557604051637e27328960e01b8152600481018390526024016104c5565b836001600160a01b0316816001600160a01b031614610529576040516364283d7b60e01b81526001600160a01b03808616600483015260248201849052821660448201526064016104c5565b808061134557506001600160a01b03821615155b1561140757600061135584610d73565b90506001600160a01b038316158015906113815750826001600160a01b0316816001600160a01b031614155b801561139457506113928184610cb7565b155b156113bd5760405163a9fbf51f60e01b81526001600160a01b03841660048201526024016104c5565b81156114055783856001600160a01b0316826001600160a01b03167f8c5be1e5ebec7d5bd14f71427d1e84f3dd0314c0f7b2291e5b200ac8c7c3b92560405160405180910390a45b505b5050600090815260046020526040902080546001600160a01b0319166001600160a01b0392909216919091179055565b611442838383610fdf565b6106be576001600160a01b03831661147057604051637e27328960e01b8152600481018290526024016104c5565b60405163177e802f60e01b81526001600160a01b0383166004820152602481018290526044016104c5565b606060006114a88361152e565b600101905060008167ffffffffffffffff8111156114c8576114c8611737565b6040519080825280601f01601f1916602001820160405280156114f2576020820181803683370190505b5090508181016020015b600019016f181899199a1a9b1b9c1cb0b131b232b360811b600a86061a8153600a85049450846114fc57509392505050565b60008072184f03e93ff9f4daa797ed6e38ed64bf6a1f0160401b831061156d5772184f03e93ff9f4daa797ed6e38ed64bf6a1f0160401b830492506040015b6d04ee2d6d415b85acef81000000008310611599576d04ee2d6d415b85acef8100000000830492506020015b662386f26fc1000083106115b757662386f26fc10000830492506010015b6305f5e10083106115cf576305f5e100830492506008015b61271083106115e357612710830492506004015b606483106115f5576064830492506002015b600a83106103cf5760010192915050565b6001600160e01b031981168114610d2057600080fd5b60006020828403121561162e57600080fd5b813561127a81611606565b60005b8381101561165457818101518382015260200161163c565b50506000910152565b60008151808452611675816020860160208601611639565b601f01601f19169290920160200192915050565b60208152600061127a602083018461165d565b6000602082840312156116ae57600080fd5b5035919050565b80356001600160a01b03811681146116cc57600080fd5b919050565b600080604083850312156116e457600080fd5b6116ed836116b5565b946020939093013593505050565b60008060006060848603121561171057600080fd5b611719846116b5565b9250611727602085016116b5565b9150604084013590509250925092565b634e487b7160e01b600052604160045260246000fd5b600067ffffffffffffffff8084111561176857611768611737565b604051601f8501601f19908116603f0116810190828211818310171561179057611790611737565b816040528093508581528686860111156117a957600080fd5b858560208301376000602087830101525050509392505050565b600082601f8301126117d457600080fd5b61127a8383356020850161174d565b600080600080600060a086880312156117fb57600080fd5b611804866116b5565b9450602086013567ffffffffffffffff8082111561182157600080fd5b61182d89838a016117c3565b9550604088013591508082111561184357600080fd5b61184f89838a016117c3565b945060608801359350608088013591508082111561186c57600080fd5b50611879888289016117c3565b9150509295509295909350565b803580151581146116cc57600080fd5b600080604083850312156118a957600080fd5b6118b2836116b5565b91506118c060208401611886565b90509250929050565b6000602082840312156118db57600080fd5b61127a826116b5565b600080604083850312156118f757600080fd5b823591506118c060208401611886565b6000806000806080858703121561191d57600080fd5b611926856116b5565b9350611934602086016116b5565b925060408501359150606085013567ffffffffffffffff81111561195757600080fd5b8501601f8101871361196857600080fd5b6119778782356020840161174d565b91505092959194509250565b608081526000611996608083018761165d565b82810360208401526119a8818761165d565b6040840195909552505090151560609091015292915050565b600080604083850312156119d457600080fd5b6119dd836116b5565b91506118c0602084016116b5565b600181811c908216806119ff57607f821691505b602082108103611a1f57634e487b7160e01b600052602260045260246000fd5b50919050565b601f8211156106be57600081815260208120601f850160051c81016020861015611a4c5750805b601f850160051c820191505b8181101561120357828155600101611a58565b815167ffffffffffffffff811115611a8557611a85611737565b611a9981611a9384546119eb565b84611a25565b602080601f831160018114611ace5760008415611ab65750858301515b600019600386901b1c1916600185901b178555611203565b600085815260208120601f198616915b82811015611afd57888601518255948401946001909101908401611ade565b5085821015611b1b5787850151600019600388901b60f8161c191681555b5050505050600190811b01905550565b60008351611b3d818460208801611639565b835190830190611b51818360208801611639565b01949350505050565b6001600160a01b0385811682528416602082015260408101839052608060608201819052600090611b8d9083018461165d565b9695505050505050565b600060208284031215611ba957600080fd5b815161127a8161160656fea2646970667358221220147105186acf94cc395d4d173b060a203244c1a5b245ff2f1afb2bf58080fad964736f6c63430008140033",
  "linkReferences": {},
  "deployedLinkReferences": {}
}